{
  "_format": "hh-sol-artifact-1",
  "contractName": "BeerPortal",
  "sourceName": "contracts/BeerPortal.sol",
  "abi": [
    {
      "inputs": [],
      "stateMutability": "payable",
      "type": "constructor"
    },
    {
      "anonymous": false,
      "inputs": [
        {
          "indexed": true,
          "internalType": "address",
          "name": "from",
          "type": "address"
        },
        {
          "indexed": false,
          "internalType": "uint256",
          "name": "timestamp",
          "type": "uint256"
        },
        {
          "indexed": false,
          "internalType": "string",
          "name": "message",
          "type": "string"
        }
      ],
      "name": "NewBeer",
      "type": "event"
    },
    {
      "inputs": [],
      "name": "getAllBeers",
      "outputs": [
        {
          "components": [
            {
              "internalType": "address",
              "name": "beerer",
              "type": "address"
            },
            {
              "internalType": "string",
              "name": "message",
              "type": "string"
            },
            {
              "internalType": "uint256",
              "name": "timestamp",
              "type": "uint256"
            }
          ],
          "internalType": "struct BeerPortal.Beer[]",
          "name": "",
          "type": "tuple[]"
        }
      ],
      "stateMutability": "view",
      "type": "function"
    },
    {
      "inputs": [],
      "name": "getTotalBeers",
      "outputs": [
        {
          "internalType": "uint256",
          "name": "",
          "type": "uint256"
        }
      ],
      "stateMutability": "view",
      "type": "function"
    },
    {
      "inputs": [
        {
          "internalType": "address",
          "name": "",
          "type": "address"
        }
      ],
      "name": "lastBeerAt",
      "outputs": [
        {
          "internalType": "uint256",
          "name": "",
          "type": "uint256"
        }
      ],
      "stateMutability": "view",
      "type": "function"
    },
    {
      "inputs": [
        {
          "internalType": "string",
          "name": "_message",
          "type": "string"
        },
        {
          "internalType": "uint256",
          "name": "_amount",
          "type": "uint256"
        }
      ],
      "name": "sendBeer",
      "outputs": [],
      "stateMutability": "nonpayable",
      "type": "function"
    }
  ],
  "bytecode": "0x6080604052620000336040518060600160405280603a815260200162001490603a91396200005b60201b620006471760201c565b60644442620000439190620001a8565b6200004f919062000245565b600181905550620002ec565b620000fb8160405160240162000072919062000168565b6040516020818303038152906040527f41304fac000000000000000000000000000000000000000000000000000000007bffffffffffffffffffffffffffffffffffffffffffffffffffffffff19166020820180517bffffffffffffffffffffffffffffffffffffffffffffffffffffffff8381831617835250505050620000fe60201b60201c565b50565b60008151905060006a636f6e736f6c652e6c6f679050602083016000808483855afa5050505050565b600062000134826200018c565b62000140818562000197565b9350620001528185602086016200020f565b6200015d81620002db565b840191505092915050565b6000602082019050818103600083015262000184818462000127565b905092915050565b600081519050919050565b600082825260208201905092915050565b6000620001b58262000205565b9150620001c28362000205565b9250827fffffffffffffffffffffffffffffffffffffffffffffffffffffffffffffffff03821115620001fa57620001f96200027d565b5b828201905092915050565b6000819050919050565b60005b838110156200022f57808201518184015260208101905062000212565b838111156200023f576000848401525b50505050565b6000620002528262000205565b91506200025f8362000205565b925082620002725762000271620002ac565b5b828206905092915050565b7f4e487b7100000000000000000000000000000000000000000000000000000000600052601160045260246000fd5b7f4e487b7100000000000000000000000000000000000000000000000000000000600052601260045260246000fd5b6000601f19601f8301169050919050565b61119480620002fc6000396000f3fe608060405234801561001057600080fd5b506004361061004c5760003560e01c806367b0d31214610051578063999655f61461006f578063b8d0eaaf1461008b578063efff97d4146100bb575b600080fd5b6100596100d9565b6040516100669190610c1b565b60405180910390f35b6100896004803603810190610084919061099f565b61022a565b005b6100a560048036038101906100a09190610976565b6105e4565b6040516100b29190610d1f565b60405180910390f35b6100c36105fc565b6040516100d09190610d1f565b60405180910390f35b60606002805480602002602001604051908101604052809291908181526020016000905b8282101561022157838290600052602060002090600302016040518060600160405290816000820160009054906101000a900473ffffffffffffffffffffffffffffffffffffffff1673ffffffffffffffffffffffffffffffffffffffff1673ffffffffffffffffffffffffffffffffffffffff16815260200160018201805461018690610f05565b80601f01602080910402602001604051908101604052809291908181526020018280546101b290610f05565b80156101ff5780601f106101d4576101008083540402835291602001916101ff565b820191906000526020600020905b8154815290600101906020018083116101e257829003601f168201915b50505050508152602001600282015481525050815260200190600101906100fd565b50505050905090565b42610384600360003373ffffffffffffffffffffffffffffffffffffffff1673ffffffffffffffffffffffffffffffffffffffff168152602001908152602001600020546102789190610e31565b106102b8576040517f08c379a00000000000000000000000000000000000000000000000000000000081526004016102af90610cff565b60405180910390fd5b42600360003373ffffffffffffffffffffffffffffffffffffffff1673ffffffffffffffffffffffffffffffffffffffff168152602001908152602001600020819055508060008082825461030d9190610e31565b925050819055506103536040518060400160405280601781526020017f2573206861732073656e7420796f752061206265657221000000000000000000815250336106e0565b600260405180606001604052803373ffffffffffffffffffffffffffffffffffffffff16815260200184815260200142815250908060018154018082558091505060019003906000526020600020906003020160009091909190915060008201518160000160006101000a81548173ffffffffffffffffffffffffffffffffffffffff021916908373ffffffffffffffffffffffffffffffffffffffff1602179055506020820151816001019080519060200190610412929190610841565b506040820151816002015550503373ffffffffffffffffffffffffffffffffffffffff167f872d9d528142625991aa3a19d0d66f41e993c930f3ef3b47839f5e5c2585f9ee4284604051610467929190610d3a565b60405180910390a2606460015442446104809190610e31565b61048a9190610e31565b6104949190610f68565b600181905550601e600154116105e0576104e36040518060400160405280600781526020017f257320776f6e2100000000000000000000000000000000000000000000000000815250336106e0565b6000655af3107a4000905047811115610531576040517f08c379a000000000000000000000000000000000000000000000000000000000815260040161052890610cbf565b60405180910390fd5b60003373ffffffffffffffffffffffffffffffffffffffff168260405161055790610c06565b60006040518083038185875af1925050503d8060008114610594576040519150601f19603f3d011682016040523d82523d6000602084013e610599565b606091505b50509050806105dd576040517f08c379a00000000000000000000000000000000000000000000000000000000081526004016105d490610cdf565b60405180910390fd5b50505b5050565b60036020528060005260406000206000915090505481565b600061063f6040518060400160405280601681526020017f5765206861766520256420746f74616c2062656572210000000000000000000081525060005461077c565b600054905090565b6106dd8160405160240161065b9190610c3d565b6040516020818303038152906040527f41304fac000000000000000000000000000000000000000000000000000000007bffffffffffffffffffffffffffffffffffffffffffffffffffffffff19166020820180517bffffffffffffffffffffffffffffffffffffffffffffffffffffffff8381831617835250505050610818565b50565b61077882826040516024016106f6929190610c5f565b6040516020818303038152906040527f319af333000000000000000000000000000000000000000000000000000000007bffffffffffffffffffffffffffffffffffffffffffffffffffffffff19166020820180517bffffffffffffffffffffffffffffffffffffffffffffffffffffffff8381831617835250505050610818565b5050565b6108148282604051602401610792929190610c8f565b6040516020818303038152906040527f9710a9d0000000000000000000000000000000000000000000000000000000007bffffffffffffffffffffffffffffffffffffffffffffffffffffffff19166020820180517bffffffffffffffffffffffffffffffffffffffffffffffffffffffff8381831617835250505050610818565b5050565b60008151905060006a636f6e736f6c652e6c6f679050602083016000808483855afa5050505050565b82805461084d90610f05565b90600052602060002090601f01602090048101928261086f57600085556108b6565b82601f1061088857805160ff19168380011785556108b6565b828001600101855582156108b6579182015b828111156108b557825182559160200191906001019061089a565b5b5090506108c391906108c7565b5090565b5b808211156108e05760008160009055506001016108c8565b5090565b60006108f76108f284610d8f565b610d6a565b90508281526020810184848401111561090f57600080fd5b61091a848285610ec3565b509392505050565b60008135905061093181611130565b92915050565b600082601f83011261094857600080fd5b81356109588482602086016108e4565b91505092915050565b60008135905061097081611147565b92915050565b60006020828403121561098857600080fd5b600061099684828501610922565b91505092915050565b600080604083850312156109b257600080fd5b600083013567ffffffffffffffff8111156109cc57600080fd5b6109d885828601610937565b92505060206109e985828601610961565b9150509250929050565b60006109ff8383610b98565b905092915050565b610a1081610e87565b82525050565b610a1f81610e87565b82525050565b6000610a3082610dd0565b610a3a8185610df3565b935083602082028501610a4c85610dc0565b8060005b85811015610a885784840389528151610a6985826109f3565b9450610a7483610de6565b925060208a01995050600181019050610a50565b50829750879550505050505092915050565b6000610aa582610ddb565b610aaf8185610e0f565b9350610abf818560208601610ed2565b610ac881611055565b840191505092915050565b6000610ade82610ddb565b610ae88185610e20565b9350610af8818560208601610ed2565b610b0181611055565b840191505092915050565b6000610b19603483610e20565b9150610b2482611066565b604082019050919050565b6000610b3c602783610e20565b9150610b47826110b5565b604082019050919050565b6000610b5f600083610e04565b9150610b6a82611104565b600082019050919050565b6000610b82600883610e20565b9150610b8d82611107565b602082019050919050565b6000606083016000830151610bb06000860182610a07565b5060208301518482036020860152610bc88282610a9a565b9150506040830151610bdd6040860182610be8565b508091505092915050565b610bf181610eb9565b82525050565b610c0081610eb9565b82525050565b6000610c1182610b52565b9150819050919050565b60006020820190508181036000830152610c358184610a25565b905092915050565b60006020820190508181036000830152610c578184610ad3565b905092915050565b60006040820190508181036000830152610c798185610ad3565b9050610c886020830184610a16565b9392505050565b60006040820190508181036000830152610ca98185610ad3565b9050610cb86020830184610bf7565b9392505050565b60006020820190508181036000830152610cd881610b0c565b9050919050565b60006020820190508181036000830152610cf881610b2f565b9050919050565b60006020820190508181036000830152610d1881610b75565b9050919050565b6000602082019050610d346000830184610bf7565b92915050565b6000604082019050610d4f6000830185610bf7565b8181036020830152610d618184610ad3565b90509392505050565b6000610d74610d85565b9050610d808282610f37565b919050565b6000604051905090565b600067ffffffffffffffff821115610daa57610da9611026565b5b610db382611055565b9050602081019050919050565b6000819050602082019050919050565b600081519050919050565b600081519050919050565b6000602082019050919050565b600082825260208201905092915050565b600081905092915050565b600082825260208201905092915050565b600082825260208201905092915050565b6000610e3c82610eb9565b9150610e4783610eb9565b9250827fffffffffffffffffffffffffffffffffffffffffffffffffffffffffffffffff03821115610e7c57610e7b610f99565b5b828201905092915050565b6000610e9282610e99565b9050919050565b600073ffffffffffffffffffffffffffffffffffffffff82169050919050565b6000819050919050565b82818337600083830152505050565b60005b83811015610ef0578082015181840152602081019050610ed5565b83811115610eff576000848401525b50505050565b60006002820490506001821680610f1d57607f821691505b60208210811415610f3157610f30610ff7565b5b50919050565b610f4082611055565b810181811067ffffffffffffffff82111715610f5f57610f5e611026565b5b80604052505050565b6000610f7382610eb9565b9150610f7e83610eb9565b925082610f8e57610f8d610fc8565b5b828206905092915050565b7f4e487b7100000000000000000000000000000000000000000000000000000000600052601160045260246000fd5b7f4e487b7100000000000000000000000000000000000000000000000000000000600052601260045260246000fd5b7f4e487b7100000000000000000000000000000000000000000000000000000000600052602260045260246000fd5b7f4e487b7100000000000000000000000000000000000000000000000000000000600052604160045260246000fd5b6000601f19601f8301169050919050565b7f547279696e6720746f207769746864726177206d6f7265206d6f6e657920746860008201527f616e2074686520636f6e7472616374206861732e000000000000000000000000602082015250565b7f4661696c656420746f207769746864726177206d6f6e65792066726f6d20636f60008201527f6e74726163742e00000000000000000000000000000000000000000000000000602082015250565b50565b7f576169742031356d000000000000000000000000000000000000000000000000600082015250565b61113981610e87565b811461114457600080fd5b50565b61115081610eb9565b811461115b57600080fd5b5056fea2646970667358221220def7407c3f4daf8afdec973bf2569d42fc5ee8b81766c009fc43edb3d5f8207164736f6c634300080400335468697320636f6e747261637420697320676f6e6e61206265204c4547454e2e2e2e2e7761697420666f722069742e2e2e2e2044415252595959",
  "linkReferences": {},
  "deployedLinkReferences": {}
}